{
  "contractName": "game",
  "abi": [
    {
      "inputs": [],
      "name": "numberOfPlayers",
      "outputs": [
        {
          "internalType": "uint8",
          "name": "",
          "type": "uint8"
        }
      ],
      "stateMutability": "view",
      "type": "function"
    },
    {
      "inputs": [],
      "name": "winner",
      "outputs": [
        {
          "internalType": "address",
          "name": "",
          "type": "address"
        }
      ],
      "stateMutability": "view",
      "type": "function"
    },
    {
      "inputs": [
        {
          "internalType": "uint256",
          "name": "_number",
          "type": "uint256"
        }
      ],
      "name": "registerGamble",
      "outputs": [],
      "stateMutability": "payable",
      "type": "function"
    }
  ],
  "bytecode": "0x608060405234801561000f575f80fd5b506107078061001d5f395ff3fe608060405260043610610033575f3560e01c80632484650c146100375780636f4bda1714610053578063dfbf53ae1461007d575b5f80fd5b610051600480360381019061004c919061046a565b6100a7565b005b34801561005e575f80fd5b5061006761029c565b60405161007491906104b0565b60405180910390f35b348015610088575f80fd5b506100916102ae565b60405161009e9190610508565b60405180910390f35b670de0b6b3a764000034146100f1576040517f08c379a00000000000000000000000000000000000000000000000000000000081526004016100e8906105a1565b60405180910390fd5b600160045f9054906101000a900460ff1660ff16106101c957335f60045f9054906101000a900460ff1660ff166002811061012f5761012e6105bf565b5b600202015f015f6101000a81548173ffffffffffffffffffffffffffffffffffffffff021916908373ffffffffffffffffffffffffffffffffffffffff160217905550805f60045f9054906101000a900460ff1660ff1660028110610197576101966105bf565b5b60020201600101819055505f60045f6101000a81548160ff021916908360ff1602179055506101c46102d4565b610299565b335f60045f9054906101000a900460ff1660ff16600281106101ee576101ed6105bf565b5b600202015f015f6101000a81548173ffffffffffffffffffffffffffffffffffffffff021916908373ffffffffffffffffffffffffffffffffffffffff160217905550805f60045f9054906101000a900460ff1660ff1660028110610256576102556105bf565b5b600202016001018190555060045f81819054906101000a900460ff168092919061027f90610619565b91906101000a81548160ff021916908360ff160217905550505b50565b60045f9054906101000a900460ff1681565b600460019054906101000a900473ffffffffffffffffffffffffffffffffffffffff1681565b5f805f6001600281106102ea576102e96105bf565b5b60020201600101545f8060028110610305576103046105bf565b5b60020201600101546103179190610641565b9050600160028261032891906106a1565b0361036d575f80600281106103405761033f6105bf565b5b600202015f015f9054906101000a900473ffffffffffffffffffffffffffffffffffffffff1691506103aa565b5f600160028110610381576103806105bf565b5b600202015f015f9054906101000a900473ffffffffffffffffffffffffffffffffffffffff1691505b81600460016101000a81548173ffffffffffffffffffffffffffffffffffffffff021916908373ffffffffffffffffffffffffffffffffffffffff1602179055508173ffffffffffffffffffffffffffffffffffffffff166108fc4790811502906040515f60405180830381858888f1935050505015801561042e573d5f803e3d5ffd5b505050565b5f80fd5b5f819050919050565b61044981610437565b8114610453575f80fd5b50565b5f8135905061046481610440565b92915050565b5f6020828403121561047f5761047e610433565b5b5f61048c84828501610456565b91505092915050565b5f60ff82169050919050565b6104aa81610495565b82525050565b5f6020820190506104c35f8301846104a1565b92915050565b5f73ffffffffffffffffffffffffffffffffffffffff82169050919050565b5f6104f2826104c9565b9050919050565b610502816104e8565b82525050565b5f60208201905061051b5f8301846104f9565b92915050565b5f82825260208201905092915050565b7f4e6f206d616e6461737465206c612063616e74696461642065786163746120645f8201527f652065746820736f6c6963697461646100000000000000000000000000000000602082015250565b5f61058b603083610521565b915061059682610531565b604082019050919050565b5f6020820190508181035f8301526105b88161057f565b9050919050565b7f4e487b71000000000000000000000000000000000000000000000000000000005f52603260045260245ffd5b7f4e487b71000000000000000000000000000000000000000000000000000000005f52601160045260245ffd5b5f61062382610495565b915060ff8203610636576106356105ec565b5b600182019050919050565b5f61064b82610437565b915061065683610437565b925082820190508082111561066e5761066d6105ec565b5b92915050565b7f4e487b71000000000000000000000000000000000000000000000000000000005f52601260045260245ffd5b5f6106ab82610437565b91506106b683610437565b9250826106c6576106c5610674565b5b82820690509291505056fea2646970667358221220773579d0942b42feb5e49fc903de2ec8d9ef88c9834a7aa8f15630cc005f664b64736f6c63430008150033",
  "immutableReferences": {},
  "source": "//SPDX-License-Identifier:MIT\npragma solidity >=0.7.0 <0.9.0;\n\ncontract game{\n\n    struct Player{\n        address addr;\n        uint256 number;\n    }\n\n    Player[2] private player;\n    uint8 public numberOfPlayers;\n    address public winner;\n\n    function registerGamble(uint256 _number) external payable{\n        require( msg.value == 1 ether , \"No mandaste la cantidad exacta de eth solicitada\");\n        if(numberOfPlayers >= 1){\n            player[numberOfPlayers].addr=msg.sender;\n            player[numberOfPlayers].number=_number;\n            numberOfPlayers=0;\n            theWinnerIs();\n        }\n        else{\n            player[numberOfPlayers].addr=msg.sender;\n            player[numberOfPlayers].number=_number;\n            numberOfPlayers++;\n        }\n    }\n\n    function theWinnerIs() internal\n    {\n        address payable _winner;\n        uint256 number = player[0].number + player[1].number;\n        if( (number%2)==1 )\n        {\n            _winner=payable(player[0].addr);\n        }\n        else\n        {\n            _winner=payable(player[1].addr);\n        }\n        winner=_winner;\n        _winner.transfer(address(this).balance);\n    }\n}",
  "sourcePath": "/home/cdeorta/security/keepingSecrets/contracts/KeepingSecrets.sol",
  "compiler": {
    "name": "solc",
    "version": "0.8.21+commit.d9974bed.Emscripten.clang"
  },
  "schemaVersion": "3.4.16",
  "updatedAt": "2025-01-20T19:39:03.021Z",
  "devdoc": {
    "kind": "dev",
    "methods": {},
    "version": 1
  },
  "userdoc": {
    "kind": "user",
    "methods": {},
    "version": 1
  }
}